{
  "_format": "hh-sol-artifact-1",
  "contractName": "Rewards",
  "sourceName": "contracts/Rewards.sol",
  "abi": [
    {
      "inputs": [],
      "stateMutability": "nonpayable",
      "type": "constructor"
    },
    {
      "anonymous": false,
      "inputs": [
        {
          "indexed": true,
          "internalType": "address",
          "name": "owner",
          "type": "address"
        },
        {
          "indexed": true,
          "internalType": "address",
          "name": "spender",
          "type": "address"
        },
        {
          "indexed": false,
          "internalType": "uint256",
          "name": "value",
          "type": "uint256"
        }
      ],
      "name": "Approval",
      "type": "event"
    },
    {
      "anonymous": false,
      "inputs": [
        {
          "indexed": true,
          "internalType": "address",
          "name": "from",
          "type": "address"
        },
        {
          "indexed": true,
          "internalType": "address",
          "name": "to",
          "type": "address"
        },
        {
          "indexed": false,
          "internalType": "uint256",
          "name": "value",
          "type": "uint256"
        }
      ],
      "name": "Transfer",
      "type": "event"
    },
    {
      "inputs": [
        {
          "internalType": "address",
          "name": "owner",
          "type": "address"
        },
        {
          "internalType": "address",
          "name": "spender",
          "type": "address"
        }
      ],
      "name": "allowance",
      "outputs": [
        {
          "internalType": "uint256",
          "name": "",
          "type": "uint256"
        }
      ],
      "stateMutability": "view",
      "type": "function"
    },
    {
      "inputs": [
        {
          "internalType": "address",
          "name": "spender",
          "type": "address"
        },
        {
          "internalType": "uint256",
          "name": "amount",
          "type": "uint256"
        }
      ],
      "name": "approve",
      "outputs": [
        {
          "internalType": "bool",
          "name": "",
          "type": "bool"
        }
      ],
      "stateMutability": "nonpayable",
      "type": "function"
    },
    {
      "inputs": [
        {
          "internalType": "address",
          "name": "account",
          "type": "address"
        }
      ],
      "name": "balanceOf",
      "outputs": [
        {
          "internalType": "uint256",
          "name": "",
          "type": "uint256"
        }
      ],
      "stateMutability": "view",
      "type": "function"
    },
    {
      "inputs": [],
      "name": "claim",
      "outputs": [],
      "stateMutability": "nonpayable",
      "type": "function"
    },
    {
      "inputs": [
        {
          "internalType": "address",
          "name": "",
          "type": "address"
        }
      ],
      "name": "claimable",
      "outputs": [
        {
          "internalType": "uint256",
          "name": "",
          "type": "uint256"
        }
      ],
      "stateMutability": "view",
      "type": "function"
    },
    {
      "inputs": [],
      "name": "decimals",
      "outputs": [
        {
          "internalType": "uint8",
          "name": "",
          "type": "uint8"
        }
      ],
      "stateMutability": "view",
      "type": "function"
    },
    {
      "inputs": [
        {
          "internalType": "address",
          "name": "spender",
          "type": "address"
        },
        {
          "internalType": "uint256",
          "name": "subtractedValue",
          "type": "uint256"
        }
      ],
      "name": "decreaseAllowance",
      "outputs": [
        {
          "internalType": "bool",
          "name": "",
          "type": "bool"
        }
      ],
      "stateMutability": "nonpayable",
      "type": "function"
    },
    {
      "inputs": [
        {
          "internalType": "address",
          "name": "spender",
          "type": "address"
        },
        {
          "internalType": "uint256",
          "name": "addedValue",
          "type": "uint256"
        }
      ],
      "name": "increaseAllowance",
      "outputs": [
        {
          "internalType": "bool",
          "name": "",
          "type": "bool"
        }
      ],
      "stateMutability": "nonpayable",
      "type": "function"
    },
    {
      "inputs": [
        {
          "internalType": "address",
          "name": "to",
          "type": "address"
        },
        {
          "internalType": "uint256",
          "name": "amount",
          "type": "uint256"
        }
      ],
      "name": "mint",
      "outputs": [],
      "stateMutability": "nonpayable",
      "type": "function"
    },
    {
      "inputs": [],
      "name": "name",
      "outputs": [
        {
          "internalType": "string",
          "name": "",
          "type": "string"
        }
      ],
      "stateMutability": "view",
      "type": "function"
    },
    {
      "inputs": [],
      "name": "owner",
      "outputs": [
        {
          "internalType": "address",
          "name": "",
          "type": "address"
        }
      ],
      "stateMutability": "view",
      "type": "function"
    },
    {
      "inputs": [
        {
          "internalType": "address",
          "name": "user",
          "type": "address"
        },
        {
          "internalType": "uint256",
          "name": "amount",
          "type": "uint256"
        }
      ],
      "name": "setClaimable",
      "outputs": [],
      "stateMutability": "nonpayable",
      "type": "function"
    },
    {
      "inputs": [],
      "name": "symbol",
      "outputs": [
        {
          "internalType": "string",
          "name": "",
          "type": "string"
        }
      ],
      "stateMutability": "view",
      "type": "function"
    },
    {
      "inputs": [],
      "name": "totalSupply",
      "outputs": [
        {
          "internalType": "uint256",
          "name": "",
          "type": "uint256"
        }
      ],
      "stateMutability": "view",
      "type": "function"
    },
    {
      "inputs": [
        {
          "internalType": "address",
          "name": "to",
          "type": "address"
        },
        {
          "internalType": "uint256",
          "name": "amount",
          "type": "uint256"
        }
      ],
      "name": "transfer",
      "outputs": [
        {
          "internalType": "bool",
          "name": "",
          "type": "bool"
        }
      ],
      "stateMutability": "nonpayable",
      "type": "function"
    },
    {
      "inputs": [
        {
          "internalType": "address",
          "name": "from",
          "type": "address"
        },
        {
          "internalType": "address",
          "name": "to",
          "type": "address"
        },
        {
          "internalType": "uint256",
          "name": "amount",
          "type": "uint256"
        }
      ],
      "name": "transferFrom",
      "outputs": [
        {
          "internalType": "bool",
          "name": "",
          "type": "bool"
        }
      ],
      "stateMutability": "nonpayable",
      "type": "function"
    }
  ],
  "bytecode": "0x60806040523480156200001157600080fd5b506040518060400160405280600781526020017f57435444656d6f000000000000000000000000000000000000000000000000008152506040518060400160405280600481526020017f574354440000000000000000000000000000000000000000000000000000000081525081600390816200008f919062000523565b508060049081620000a1919062000523565b50505033600560006101000a81548173ffffffffffffffffffffffffffffffffffffffff021916908373ffffffffffffffffffffffffffffffffffffffff1602179055506200012333620000fa6200012960201b60201c565b600a6200010891906200079a565b6103e8620001179190620007eb565b6200013260201b60201c565b62000922565b60006012905090565b600073ffffffffffffffffffffffffffffffffffffffff168273ffffffffffffffffffffffffffffffffffffffff1603620001a4576040517f08c379a00000000000000000000000000000000000000000000000000000000081526004016200019b9062000897565b60405180910390fd5b620001b8600083836200029f60201b60201c565b8060026000828254620001cc9190620008b9565b92505081905550806000808473ffffffffffffffffffffffffffffffffffffffff1673ffffffffffffffffffffffffffffffffffffffff168152602001908152602001600020600082825401925050819055508173ffffffffffffffffffffffffffffffffffffffff16600073ffffffffffffffffffffffffffffffffffffffff167fddf252ad1be2c89b69c2b068fc378daa952ba7f163c4a11628f55a4df523b3ef836040516200027f919062000905565b60405180910390a36200029b60008383620002a460201b60201c565b5050565b505050565b505050565b600081519050919050565b7f4e487b7100000000000000000000000000000000000000000000000000000000600052604160045260246000fd5b7f4e487b7100000000000000000000000000000000000000000000000000000000600052602260045260246000fd5b600060028204905060018216806200032b57607f821691505b602082108103620003415762000340620002e3565b5b50919050565b60008190508160005260206000209050919050565b60006020601f8301049050919050565b600082821b905092915050565b600060088302620003ab7fffffffffffffffffffffffffffffffffffffffffffffffffffffffffffffffff826200036c565b620003b786836200036c565b95508019841693508086168417925050509392505050565b6000819050919050565b6000819050919050565b600062000404620003fe620003f884620003cf565b620003d9565b620003cf565b9050919050565b6000819050919050565b6200042083620003e3565b620004386200042f826200040b565b84845462000379565b825550505050565b600090565b6200044f62000440565b6200045c81848462000415565b505050565b5b8181101562000484576200047860008262000445565b60018101905062000462565b5050565b601f821115620004d3576200049d8162000347565b620004a8846200035c565b81016020851015620004b8578190505b620004d0620004c7856200035c565b83018262000461565b50505b505050565b600082821c905092915050565b6000620004f860001984600802620004d8565b1980831691505092915050565b6000620005138383620004e5565b9150826002028217905092915050565b6200052e82620002a9565b67ffffffffffffffff8111156200054a5762000549620002b4565b5b62000556825462000312565b6200056382828562000488565b600060209050601f8311600181146200059b576000841562000586578287015190505b62000592858262000505565b86555062000602565b601f198416620005ab8662000347565b60005b82811015620005d557848901518255600182019150602085019450602081019050620005ae565b86831015620005f55784890151620005f1601f891682620004e5565b8355505b6001600288020188555050505b505050505050565b7f4e487b7100000000000000000000000000000000000000000000000000000000600052601160045260246000fd5b60008160011c9050919050565b6000808291508390505b6001851115620006985780860481111562000670576200066f6200060a565b5b6001851615620006805780820291505b8081029050620006908562000639565b945062000650565b94509492505050565b600082620006b3576001905062000786565b81620006c3576000905062000786565b8160018114620006dc5760028114620006e7576200071d565b600191505062000786565b60ff841115620006fc57620006fb6200060a565b5b8360020a9150848211156200071657620007156200060a565b5b5062000786565b5060208310610133831016604e8410600b8410161715620007575782820a9050838111156200075157620007506200060a565b5b62000786565b62000766848484600162000646565b9250905081840481111562000780576200077f6200060a565b5b81810290505b9392505050565b600060ff82169050919050565b6000620007a782620003cf565b9150620007b4836200078d565b9250620007e37fffffffffffffffffffffffffffffffffffffffffffffffffffffffffffffffff8484620006a1565b905092915050565b6000620007f882620003cf565b91506200080583620003cf565b92508282026200081581620003cf565b915082820484148315176200082f576200082e6200060a565b5b5092915050565b600082825260208201905092915050565b7f45524332303a206d696e7420746f20746865207a65726f206164647265737300600082015250565b60006200087f601f8362000836565b91506200088c8262000847565b602082019050919050565b60006020820190508181036000830152620008b28162000870565b9050919050565b6000620008c682620003cf565b9150620008d383620003cf565b9250828201905080821115620008ee57620008ed6200060a565b5b92915050565b620008ff81620003cf565b82525050565b60006020820190506200091c6000830184620008f4565b92915050565b61186780620009326000396000f3fe608060405234801561001057600080fd5b50600436106101005760003560e01c80634e71d92d1161009757806395d89b411161006657806395d89b41146102af578063a457c2d7146102cd578063a9059cbb146102fd578063dd62ed3e1461032d57610100565b80634e71d92d1461023b5780635b27e8931461024557806370a08231146102615780638da5cb5b1461029157610100565b8063313ce567116100d3578063313ce567146101a157806339509351146101bf578063402914f5146101ef57806340c10f191461021f57610100565b806306fdde0314610105578063095ea7b31461012357806318160ddd1461015357806323b872dd14610171575b600080fd5b61010d61035d565b60405161011a9190610fd6565b60405180910390f35b61013d60048036038101906101389190611091565b6103ef565b60405161014a91906110ec565b60405180910390f35b61015b610412565b6040516101689190611116565b60405180910390f35b61018b60048036038101906101869190611131565b61041c565b60405161019891906110ec565b60405180910390f35b6101a961044b565b6040516101b691906111a0565b60405180910390f35b6101d960048036038101906101d49190611091565b610454565b6040516101e691906110ec565b60405180910390f35b610209600480360381019061020491906111bb565b61048b565b6040516102169190611116565b60405180910390f35b61023960048036038101906102349190611091565b6104a3565b005b610243610541565b005b61025f600480360381019061025a9190611091565b61061a565b005b61027b600480360381019061027691906111bb565b6106f2565b6040516102889190611116565b60405180910390f35b61029961073a565b6040516102a691906111f7565b60405180910390f35b6102b7610760565b6040516102c49190610fd6565b60405180910390f35b6102e760048036038101906102e29190611091565b6107f2565b6040516102f491906110ec565b60405180910390f35b61031760048036038101906103129190611091565b610869565b60405161032491906110ec565b60405180910390f35b61034760048036038101906103429190611212565b61088c565b6040516103549190611116565b60405180910390f35b60606003805461036c90611281565b80601f016020809104026020016040519081016040528092919081815260200182805461039890611281565b80156103e55780601f106103ba576101008083540402835291602001916103e5565b820191906000526020600020905b8154815290600101906020018083116103c857829003601f168201915b5050505050905090565b6000806103fa610913565b905061040781858561091b565b600191505092915050565b6000600254905090565b600080610427610913565b9050610434858285610ae4565b61043f858585610b70565b60019150509392505050565b60006012905090565b60008061045f610913565b9050610480818585610471858961088c565b61047b91906112e1565b61091b565b600191505092915050565b60066020528060005260406000206000915090505481565b600560009054906101000a900473ffffffffffffffffffffffffffffffffffffffff1673ffffffffffffffffffffffffffffffffffffffff163373ffffffffffffffffffffffffffffffffffffffff1614610533576040517f08c379a000000000000000000000000000000000000000000000000000000000815260040161052a90611361565b60405180910390fd5b61053d8282610de6565b5050565b6000600660003373ffffffffffffffffffffffffffffffffffffffff1673ffffffffffffffffffffffffffffffffffffffff168152602001908152602001600020549050600081116105c8576040517f08c379a00000000000000000000000000000000000000000000000000000000081526004016105bf906113cd565b60405180910390fd5b6000600660003373ffffffffffffffffffffffffffffffffffffffff1673ffffffffffffffffffffffffffffffffffffffff168152602001908152602001600020819055506106173382610de6565b50565b600560009054906101000a900473ffffffffffffffffffffffffffffffffffffffff1673ffffffffffffffffffffffffffffffffffffffff163373ffffffffffffffffffffffffffffffffffffffff16146106aa576040517f08c379a00000000000000000000000000000000000000000000000000000000081526004016106a190611361565b60405180910390fd5b80600660008473ffffffffffffffffffffffffffffffffffffffff1673ffffffffffffffffffffffffffffffffffffffff168152602001908152602001600020819055505050565b60008060008373ffffffffffffffffffffffffffffffffffffffff1673ffffffffffffffffffffffffffffffffffffffff168152602001908152602001600020549050919050565b600560009054906101000a900473ffffffffffffffffffffffffffffffffffffffff1681565b60606004805461076f90611281565b80601f016020809104026020016040519081016040528092919081815260200182805461079b90611281565b80156107e85780601f106107bd576101008083540402835291602001916107e8565b820191906000526020600020905b8154815290600101906020018083116107cb57829003601f168201915b5050505050905090565b6000806107fd610913565b9050600061080b828661088c565b905083811015610850576040517f08c379a00000000000000000000000000000000000000000000000000000000081526004016108479061145f565b60405180910390fd5b61085d828686840361091b565b60019250505092915050565b600080610874610913565b9050610881818585610b70565b600191505092915050565b6000600160008473ffffffffffffffffffffffffffffffffffffffff1673ffffffffffffffffffffffffffffffffffffffff16815260200190815260200160002060008373ffffffffffffffffffffffffffffffffffffffff1673ffffffffffffffffffffffffffffffffffffffff16815260200190815260200160002054905092915050565b600033905090565b600073ffffffffffffffffffffffffffffffffffffffff168373ffffffffffffffffffffffffffffffffffffffff160361098a576040517f08c379a0000000000000000000000000000000000000000000000000000000008152600401610981906114f1565b60405180910390fd5b600073ffffffffffffffffffffffffffffffffffffffff168273ffffffffffffffffffffffffffffffffffffffff16036109f9576040517f08c379a00000000000000000000000000000000000000000000000000000000081526004016109f090611583565b60405180910390fd5b80600160008573ffffffffffffffffffffffffffffffffffffffff1673ffffffffffffffffffffffffffffffffffffffff16815260200190815260200160002060008473ffffffffffffffffffffffffffffffffffffffff1673ffffffffffffffffffffffffffffffffffffffff168152602001908152602001600020819055508173ffffffffffffffffffffffffffffffffffffffff168373ffffffffffffffffffffffffffffffffffffffff167f8c5be1e5ebec7d5bd14f71427d1e84f3dd0314c0f7b2291e5b200ac8c7c3b92583604051610ad79190611116565b60405180910390a3505050565b6000610af0848461088c565b90507fffffffffffffffffffffffffffffffffffffffffffffffffffffffffffffffff8114610b6a5781811015610b5c576040517f08c379a0000000000000000000000000000000000000000000000000000000008152600401610b53906115ef565b60405180910390fd5b610b69848484840361091b565b5b50505050565b600073ffffffffffffffffffffffffffffffffffffffff168373ffffffffffffffffffffffffffffffffffffffff1603610bdf576040517f08c379a0000000000000000000000000000000000000000000000000000000008152600401610bd690611681565b60405180910390fd5b600073ffffffffffffffffffffffffffffffffffffffff168273ffffffffffffffffffffffffffffffffffffffff1603610c4e576040517f08c379a0000000000000000000000000000000000000000000000000000000008152600401610c4590611713565b60405180910390fd5b610c59838383610f3c565b60008060008573ffffffffffffffffffffffffffffffffffffffff1673ffffffffffffffffffffffffffffffffffffffff16815260200190815260200160002054905081811015610cdf576040517f08c379a0000000000000000000000000000000000000000000000000000000008152600401610cd6906117a5565b60405180910390fd5b8181036000808673ffffffffffffffffffffffffffffffffffffffff1673ffffffffffffffffffffffffffffffffffffffff16815260200190815260200160002081905550816000808573ffffffffffffffffffffffffffffffffffffffff1673ffffffffffffffffffffffffffffffffffffffff168152602001908152602001600020600082825401925050819055508273ffffffffffffffffffffffffffffffffffffffff168473ffffffffffffffffffffffffffffffffffffffff167fddf252ad1be2c89b69c2b068fc378daa952ba7f163c4a11628f55a4df523b3ef84604051610dcd9190611116565b60405180910390a3610de0848484610f41565b50505050565b600073ffffffffffffffffffffffffffffffffffffffff168273ffffffffffffffffffffffffffffffffffffffff1603610e55576040517f08c379a0000000000000000000000000000000000000000000000000000000008152600401610e4c90611811565b60405180910390fd5b610e6160008383610f3c565b8060026000828254610e7391906112e1565b92505081905550806000808473ffffffffffffffffffffffffffffffffffffffff1673ffffffffffffffffffffffffffffffffffffffff168152602001908152602001600020600082825401925050819055508173ffffffffffffffffffffffffffffffffffffffff16600073ffffffffffffffffffffffffffffffffffffffff167fddf252ad1be2c89b69c2b068fc378daa952ba7f163c4a11628f55a4df523b3ef83604051610f249190611116565b60405180910390a3610f3860008383610f41565b5050565b505050565b505050565b600081519050919050565b600082825260208201905092915050565b60005b83811015610f80578082015181840152602081019050610f65565b60008484015250505050565b6000601f19601f8301169050919050565b6000610fa882610f46565b610fb28185610f51565b9350610fc2818560208601610f62565b610fcb81610f8c565b840191505092915050565b60006020820190508181036000830152610ff08184610f9d565b905092915050565b600080fd5b600073ffffffffffffffffffffffffffffffffffffffff82169050919050565b600061102882610ffd565b9050919050565b6110388161101d565b811461104357600080fd5b50565b6000813590506110558161102f565b92915050565b6000819050919050565b61106e8161105b565b811461107957600080fd5b50565b60008135905061108b81611065565b92915050565b600080604083850312156110a8576110a7610ff8565b5b60006110b685828601611046565b92505060206110c78582860161107c565b9150509250929050565b60008115159050919050565b6110e6816110d1565b82525050565b600060208201905061110160008301846110dd565b92915050565b6111108161105b565b82525050565b600060208201905061112b6000830184611107565b92915050565b60008060006060848603121561114a57611149610ff8565b5b600061115886828701611046565b935050602061116986828701611046565b925050604061117a8682870161107c565b9150509250925092565b600060ff82169050919050565b61119a81611184565b82525050565b60006020820190506111b56000830184611191565b92915050565b6000602082840312156111d1576111d0610ff8565b5b60006111df84828501611046565b91505092915050565b6111f18161101d565b82525050565b600060208201905061120c60008301846111e8565b92915050565b6000806040838503121561122957611228610ff8565b5b600061123785828601611046565b925050602061124885828601611046565b9150509250929050565b7f4e487b7100000000000000000000000000000000000000000000000000000000600052602260045260246000fd5b6000600282049050600182168061129957607f821691505b6020821081036112ac576112ab611252565b5b50919050565b7f4e487b7100000000000000000000000000000000000000000000000000000000600052601160045260246000fd5b60006112ec8261105b565b91506112f78361105b565b925082820190508082111561130f5761130e6112b2565b5b92915050565b7f6f6e6c79206f776e657200000000000000000000000000000000000000000000600082015250565b600061134b600a83610f51565b915061135682611315565b602082019050919050565b6000602082019050818103600083015261137a8161133e565b9050919050565b7f6e6f7468696e6720746f20636c61696d00000000000000000000000000000000600082015250565b60006113b7601083610f51565b91506113c282611381565b602082019050919050565b600060208201905081810360008301526113e6816113aa565b9050919050565b7f45524332303a2064656372656173656420616c6c6f77616e63652062656c6f7760008201527f207a65726f000000000000000000000000000000000000000000000000000000602082015250565b6000611449602583610f51565b9150611454826113ed565b604082019050919050565b600060208201905081810360008301526114788161143c565b9050919050565b7f45524332303a20617070726f76652066726f6d20746865207a65726f2061646460008201527f7265737300000000000000000000000000000000000000000000000000000000602082015250565b60006114db602483610f51565b91506114e68261147f565b604082019050919050565b6000602082019050818103600083015261150a816114ce565b9050919050565b7f45524332303a20617070726f766520746f20746865207a65726f20616464726560008201527f7373000000000000000000000000000000000000000000000000000000000000602082015250565b600061156d602283610f51565b915061157882611511565b604082019050919050565b6000602082019050818103600083015261159c81611560565b9050919050565b7f45524332303a20696e73756666696369656e7420616c6c6f77616e6365000000600082015250565b60006115d9601d83610f51565b91506115e4826115a3565b602082019050919050565b60006020820190508181036000830152611608816115cc565b9050919050565b7f45524332303a207472616e736665722066726f6d20746865207a65726f20616460008201527f6472657373000000000000000000000000000000000000000000000000000000602082015250565b600061166b602583610f51565b91506116768261160f565b604082019050919050565b6000602082019050818103600083015261169a8161165e565b9050919050565b7f45524332303a207472616e7366657220746f20746865207a65726f206164647260008201527f6573730000000000000000000000000000000000000000000000000000000000602082015250565b60006116fd602383610f51565b9150611708826116a1565b604082019050919050565b6000602082019050818103600083015261172c816116f0565b9050919050565b7f45524332303a207472616e7366657220616d6f756e742065786365656473206260008201527f616c616e63650000000000000000000000000000000000000000000000000000602082015250565b600061178f602683610f51565b915061179a82611733565b604082019050919050565b600060208201905081810360008301526117be81611782565b9050919050565b7f45524332303a206d696e7420746f20746865207a65726f206164647265737300600082015250565b60006117fb601f83610f51565b9150611806826117c5565b602082019050919050565b6000602082019050818103600083015261182a816117ee565b905091905056fea2646970667358221220cc623ea3a193d492b8a22df277da6d9054f80dccb32a4f0fa7ce209cd2d2787c64736f6c63430008130033",
  "linkReferences": {},
  "deployedLinkReferences": {}
}